:1000000005C100000C94FD300C9428310C94533140
:100010000C947E310C94A9310C94D4310C94FF31A2
:100020000C942A3224C1000022C1000020C100002B
:100030001EC100001CC100001AC1000018C1000050
:1000400016C1000014C1000012C1000010C1000060
:100050000EC100000CC100000AC100000C94553212
:1000600006C100000C9451360C94873600C1000084
:10007000FEC00000FCC00000FAC00000F8C0000094
:10008000F6C00000F4C00000F2C00000F0C00000A4
:100090000C94DD360C941337EAC00000E8C0000071
:1000A000E6C00000E4C00000E2C00000E0C00000C4
:1000B000DEC00000DCC00000DAC00000D8C00000D4
:1000C000D6C00000D4C00000D2C000000C94693734
:1000D0000C949F37CCC000000C94F5370C942B384F
:1000E000C6C0000000000A0B02090C0D0E08070331
:1000F00004010000000000000000000000000000FB
:1001000000000000000000000000000000000000EF
:1001100012111000000000000000000000000000AC
:100120000000000000000000000001021020200874
:100130000810204010204080020102010804020142
:1001400001020408102040808040201008040201B1
:10015000800402018040201008040201080402010A
:100160000102040810204080010204081020408091
:1001700005050505070508080808020202020A0A23
:100180000808040404040101010101010101030341
:10019000030303030303040707070C0C0C0C0C0CEC
:1001A0000C0C0202020206060606060606060B0BE9
:1001B0000B0B0B0B0B0B000020002300260029006B
:1001C0002C002F003200000100000301060109018C
:1001D00000002200250028002B002E0031003400F2
:1001E00002010000050108010B01000021002400AC
:1001F00027002A002D003000330001010000040117
:1002000007010A01B0363C37C837543811241FBEE5
:10021000CFEFD1E2DEBFCDBF00E00CBF13E0A0E026
:10022000B2E0E8E0F2E700E00BBF02C007900D92F9
:10023000AE31B107D9F72BE0AEE1B3E001C01D92BA
:10024000AE33B207E1F711E0C6E0D1E000E006C04E
:1002500021970109802FFE010E94D138C230D107B9
:1002600080E00807A9F70E94D82D0C940239C8CE67
:10027000611102C00C9496346130E1F362E0FACF70
:10028000662319F061E00C94D23460E0FCCFCF9388
:10029000DF93EC0170E060E06C177D070CF5072E32
:1002A000000C880B990B0E946B2F20E030E0A90115
:1002B0000E94682E20E030E0A9010E94682E20E014
:1002C00030E040E450E40E94682E20E030E040E45A
:1002D00050E40E94672E0E94382F6F5F7F4FDCCF63
:1002E000DF91CF9108950F931F93CF93DF93EC018C
:1002F0008C810E94FF348C018C859D85C8DF8885A8
:100300000E94FF34488159816A817B81019781F481
:100310000130110579F44F5F5F4F6F4F7F4F488376
:1003200059836A837B83DF91CF911F910F91089549
:10033000012B89F34150510961097109F0CF8FE117
:1003400093E0D1CF8FE293E0CECF8FE393E0CBCF9A
:100350008FE493E0C8CF0F931F93CF93DF93EC010B
:1003600088850E94FF348C018C859D8590DF8C816F
:100370000E94FF34488159816A817B81019779F419
:10038000012B81F44F5F5F4F6F4F7F4F488359833D
:100390006A837B83DF91CF911F910F910895013084
:1003A000110581F34150510961097109EFCF8FE1C6
:1003B00093E0D1CF8FE293E0CECF8FE393E0CBCF2A
:1003C0008FE493E0C8CF0F931F93CF93DF93D82F81
:1003D000C62F8A01E0911E0380E1E89FF0011124FD
:1003E000E15EFC4F8D2F90E0B0E0A0E08483958328
:1003F000A683B783862F90E0B0E0A0E08087918746
:10040000A287B387108211821282138281E090E06A
:10041000A0E0B0E084879587A687B78760E08D2F3E
:100420000E94963460E08C2F0E94963480911E03C7
:10043000813009F43FC0A8F0823009F462C08330F3
:1004400009F486C080911E0391E0980F90931E03DB
:10045000F801808390E080E0DF91CF911F910F91B0
:10046000089580E0D23049F081E0D33031F08EEE53
:100470008D0F8430D8F487E18D1B41E050E067EDAB
:1004800071E00E94833080E0C23049F081E0C330E7
:1004900031F08EEE8C0F843058F487E18C1B41E0F4
:1004A00050E06FE971E00E948330CCCF8FEFE5CF51
:1004B0008FEFF5CF80E0D23049F081E0D33031F0DA
:1004C0008EEE8D0F8430C8F487E18D1B41E050E043
:1004D0006AED71E00E94833080E0C23049F081E033
:1004E000C33031F08EEE8C0F843048F487E18C1BE2
:1004F00041E050E062EA71E0D6CF8FEFE7CF8FEFB7
:10050000F7CF80E0D23049F081E0D33031F08EEE89
:100510008D0F8430C8F487E18D1B41E050E06DED14
:1005200071E00E94833080E0C23049F081E0C33046
:1005300031F08EEE8C0F843048F487E18C1B41E063
:1005400050E065EA71E0AFCF8FEFE7CF8FEFF7CFE5
:1005500080E0D23049F081E0D33031F08EEE8D0F63
:100560008430C8F487E18D1B41E050E060EE71E01B
:100570000E94833080E0C23049F081E0C33031F026
:100580008EEE8C0F843048F487E18C1B41E050E004
:1005900068EA71E088CF8FEFE7CF8FEFF7CF90E178
:1005A000899FF0011124E15EFC4F80819181A2813D
:1005B000B381FB0180839183A283B38390E080E0C9
:1005C000089590E1899FF0011124E15EFC4F1082B3
:1005D00011821282138290E080E0089590E080E022
:1005E0000895CF92DF92EF92FF92CF93882351F13B
:1005F0006A017B01CFEFC80F20E030E0A901CB01F9
:10060000B6010E94CC2E87FF11C0C701B6019058D9
:100610000E943D2F9B01AC016C2F70E090E080E0C8
:10062000CF91FF90EF90DF90CF90B2C0C701B6019D
:100630000E94382F8C2FCF91FF90EF90DF90CF90BA
:100640000C945C33CF91FF90EF90DF90CF900895A2
:100650000F931F938B019C0183E036952795179587
:1006600007958A95D1F7015A1C4F462F477021E014
:1006700030E0F90102C0EE0FFF1F4A95E2F7AF012B
:10068000F80120812423CB010196211102C090E0C2
:1006900080E01F910F9108950F931F938B019C0190
:1006A00083E036952795179507958A95D1F767705A
:1006B00081E090E001C0880F6A95EAF7F801E15AFD
:1006C000FC4F2081452B31F48095822380831F913C
:1006D0000F910895822BFACF2F923F924F925F9203
:1006E0006F927F928F929F92AF92BF92CF92DF9242
:1006F000EF92FF920F931F93CF93DF93D62EC72EC7
:10070000782E692E49015A01280161E08D2D0E9441
:100710009634CD2DDC2D8E010F5F1F4FA8016D2D5E
:100720007C2D872D962DB8DF20E030E0A901C20195
:10073000B7010E941B30181664F4C201B7010E9471
:100740003D2F2B01C501B4010E943D2FA201CE0116
:1007500023D0C801DF91CF911F910F91FF90EF90AF
:10076000DF90CF90BF90AF909F908F907F906F90D1
:100770005F904F903F902F900895882341F08150D3
:10078000682F70E090E080E050E040E085CF089571
:10079000862FB9010C945C339C01FC01EC51FF4F96
:1007A000E491E150E231E0F4F0E08827E552FC4FBB
:1007B0008F4F0C94D138ED03F403F7030E04230498
:1007C000F0033804440448045F0474048904A0045A
:1007D000B504F003CA04E104F60484B5806884BD5E
:1007E00060E0822F0C94D23484B58062F8CF80917F
:1007F00080008C7F82608093800080918100807E69
:100800008061682B6093810050938700409386003D
:1008100080918000806880938000E2CF809180008A
:100820008C7F82608093800080918100807E8061D7
:10083000682B6093810050938700409386008091DD
:1008400080008062E8CF809180008C7F82608093FE
:10085000800080918100807E8061682B60938100A0
:100860005093870040938600809180008860D3CFAA
:100870008091B00080688093B0008091B100887F43
:10088000682B6093B100ACCF8091B0008062F3CF51
:10089000809190008C7F8260809390008091910085
:1008A000807E8061682B6093910050939700409305
:1008B00096008091900080688093900091CF809105
:1008C00090008C7F82608093900080919100807E68
:1008D0008061682B6093910050939700409396003D
:1008E000809190008062E8CF809190008C7F826040
:1008F0008093900080919100807E8061682B60934E
:1009000091005093970040939600809190008860EA
:10091000D3CF8091A0008C7F82608093A0008091D3
:10092000A100807E8061682B6093A1005093A70096
:100930004093A6008091A00080688093A00050CFD3
:100940008091A0008C7F82608093A0008091A100A4
:10095000807E8061682B6093A1005093A700409334
:10096000A6008091A0008062E8CF8091A0008C7FDB
:1009700082608093A0008091A100807E8061682BBE
:100980006093A1005093A7004093A6008091A0001F
:100990008860D3CF809120018C7F8260809320017A
:1009A00080912101807E8061682B609321015093AA
:1009B00027014093260180912001806880932001C7
:1009C0000FCF809120018C7F8260809320018091E5
:1009D0002101807E8061682B609321015093270163
:1009E00040932601809120018062E8CF8091200110
:1009F0008C7F82608093200180912101807E8061C4
:100A0000682B609321015093270140932601809128
:100A100020018860D3CF90E080E008950F931F936A
:100A2000009709F48DC06115710509F489C0009122
:100A30004D0210914E0220914F02309150020E3F14
:100A40001F4F2F4F3F4F09F06CC04FEF5FEFBA01C0
:100A500040934D0250934E0260934F0270935002A8
:100A600040914D0250914E0260914F0270915002A0
:100A7000DC011296ED91FC9180819181A281B3817C
:100A80008093960490939704A0939804B09399044C
:100A900084819581A681B781809392049093930479
:100AA000A0939404B093950480859185A285B38525
:100AB00080938E0490938F04A0939004B09391043C
:100AC00084859585A685B78580938A0490938B0449
:100AD000A0938C04B0938D04109286041092870426
:100AE00010928804109289040E94FB1080E291E128
:100AF000909369038093680390936B0380936A03D8
:100B000090936D0380936C030E94EA0F009731F479
:100B100021E030E030939B0420939A041F910F91C1
:100B2000089500914D0210914E0220914F02309194
:100B30005002DB010D931D932D933C93139790CF9F
:100B40008FEF9FEFEBCF8F929F92AF92BF92CF929A
:100B5000DF92EF92FF921F93CF93DF934B015C01E3
:100B600010919D0482E090E090939B0480939A04FE
:100B700081149104A104B10441F480919D04811178
:100B800004C080919C04C1E08111C0E0C12CD12C33
:100B9000760180919D04811106C080919C04811191
:100BA00002C0CC23D9F083E090E090939B04809323
:100BB0009A04CC2381F1CCE9DFEF111102C00E942D
:100BC0008514CE01DF91CF911F91FF90EF90DF90C0
:100BD000CF90BF90AF909F908F9008956AE070E0A3
:100BE00080E090E00E94C43280E1C80E87E2D81E07
:100BF000E11CF11C8FEF88169806A806B80631F0A4
:100C0000C1E08C149D04AE04BF0408F0C0E080E095
:100C10000E941E10BECFD0E0C0E0CFCFCF92DF92B7
:100C2000EF92FF920F931F93CF93DF938F3F910526
:100C300011F008F051C020919A0430919B042330A8
:100C4000310539F020919A0430919B04213031050F
:100C500031F424E030E030939B0420939A046A013D
:100C60007B01EC0183309105A8F011E0AE01C701D2
:100C7000B6010E94E90FAB01BC01CE011123F9F0CE
:100C8000DF91CF911F910F91FF90EF90DF90CF9068
:100C90000C94AE168C01000F111F08591C4FD8017F
:100CA0008D919C91892B09F30E94B8160297E9F661
:100CB000D801ED91FC91CE011995182FD7CF0E9444
:100CC000D01690E080E0DF91CF911F910F91FF90BF
:100CD000EF90DF90CF9008958FEF9FEFF4CF80E0FB
:100CE0000C941E10CF93DF9386E090E090939B04CA
:100CF00080939A040E947710EC01E8E6F3E086E026
:100D0000DF011D928A95E9F70E941D1410929B0441
:100D100010929A04CE01DF91CF91089580919C04A6
:100D2000089580918504089560934D0270934E025A
:100D300080934F029093500290E080E00895CF920C
:100D4000DF92EF92FF920F931F93CF93DF93C091A7
:100D50001804D091190480E0E82E82E0F82E9CE17E
:100D6000C92E9BE0D92EF601208131814281538129
:100D7000F70160A171A182A193A10E941F300FE928
:100D80001AE0F801208D318D428D538D0E94682E1E
:100D9000688379838A839B83F60124813581468128
:100DA0005781F70160A571A582A593A50E941F3008
:100DB000F80124893589468957890E94682E6C83F9
:100DC0007D838E839F83DF91CF911F910F91FF9041
:100DD000EF90DF90CF9008952F923F924F925F92C5
:100DE0006F927F928F929F92AF92BF92CF92DF923B
:100DF000EF92FF920F931F93CF93DF93CDB7DEB7A0
:100E000060970FB6F894DEBF0FBECDBF00915804B7
:100E1000109159040130110509F0B1C160914104EC
:100E20007091420480914304909144046F5F7F4F1E
:100E30008F4F9F4F0E94692F2091450430914604A7
:100E400040914704509148040E941F3060939C03D6
:100E500070939D0380939E0390939F0380911B0B3F
:100E60008150823008F4A3C180E080931B0B8091F5
:100E70001A0B8150823008F49CC180E080931A0BD9
:100E80000130110509F08CC080915304811188C094
:100E9000C0901002D0901102E0901202F090130264
:100EA000A70196016091CE0A7091CF0A8091D00A75
:100EB0009091D10A0E94CC2E882341F0C092CE0A94
:100EC000D092CF0AE092D00AF092D10A8091CD0A56
:100ED00081111092CD0ABE016F5F7F4F8091D20ABF
:100EE0005EDB69817A818B819C810E946B2F2091CE
:100EF00018023091190240911A0250911B020E946F
:100F00001F3060939F0A7093A00A8093A10A909368
:100F1000A20AC0901402D0901502E0901602F09040
:100F20001702A70196016091C20A7091C30A8091CD
:100F3000C40A9091C50A0E94CC2E882341F0C09229
:100F4000C20AD092C30AE092C40AF092C50A809104
:100F5000C10A81111092C10ABE016F5F7F4F80915B
:100F6000C60A1DDB69817A818B819C810E946B2F6F
:100F70006D837E838F8398879B01AC0160911C02F7
:100F800070911D0280911E0290911F020E941F30DD
:100F90006093A30A7093A40A8093A50A9093A60A6B
:100FA00020911C0B30911D0B40911E0B50911F0B7B
:100FB000609124027091250280912602909127026F
:100FC0000E941F3020E030E0A9010E94682E4B01F2
:100FD0005C018092A70A9092A80AA092A90AB092F6
:100FE000AA0A2091200B3091210B4091220B5091A5
:100FF000230B60912C0270912D0280912E02909112
:101000002F020E941F3020E030E0A9010E94682ECC
:101010006B017C01C092AB0AD092AC0AE092AD0A9F
:10102000F092AE0A80919F0A9091A00AA091A10A25
:10103000B091A20A8D879E87AF87B88B8091A30A53
:101040009091A40AA091A50AB091A60A89879A87CF
:10105000AB87BC872D853E854F85588960913002CE
:101060007091310280913202909133020E94672E7A
:10107000209100023091010240910202509103023E
:101080000E941F302B013C0129853A854B855C85E8
:10109000609134027091350280913602909137024E
:1010A0000E94672E209104023091050240910602B1
:1010B000509107020E941F309B01AC01C301B20195
:1010C0000E94682E2B013C01A50194016091380219
:1010D0007091390280913A0290913B020E94672EF2
:1010E000209108023091090240910A0250910B02AE
:1010F0000E941F309B01AC01C301B2010E94682E07
:101100004B015C01A701960160913C0270913D0288
:1011100080913E0290913F020E94672E20910C0226
:1011200030910D0240910E0250910F020E941F302B
:101130009B01AC01C501B4010E94682E6B017C01CA
:10114000C092AF0AD092B00AE092B10AF092B20A0D
:101150008090400290904102A0904202B0904302E1
:10116000A50194010E941B3018162CF58092AF0A3D
:101170009092B00AA092B10AB092B20A2CC00115A6
:10118000110509F06BCEE091CC03F091CD030190F5
:10119000F081E02D80819181A281B381E0915B0497
:1011A000F0915C0480839183A283B38357CE83E064
:1011B0005CCE83E063CE8090440290904502A09084
:1011C0004602B0904702A5019401C701B6010E94F2
:1011D000CC2E87FDCBCF209058043090590491E05D
:1011E0002916310451F580915304811126C0E091F4
:1011F0009203F0919303008111810130110521F0D8
:1012000080910D04882389F020E030E040E450EC28
:1012100069857A858B859C850E94CC2E881F8827BE
:10122000881F91E089278093190B8091190B8823DF
:1012300009F45BC2813009F47EC2E0915B04F09155
:101240005C04C080D180E280F3808090EB0A9090B3
:10125000EC0AA090ED0AB090EE0A6090F30A70904C
:10126000F40A0091F50A1091F60AA7019601B4015B
:10127000C5010E941B309301A80187FD82C2C701EE
:10128000B6010E94CC2E18160CF43CC31092B30A7F
:101290001092B40A1092B50A1092B60A9090FB0A06
:1012A0008090FC0A7090FD0A6090FE0A1091030B7A
:1012B0000091040BB090050BA090060BA7019601BE
:1012C000692D782D872D962D0E941B30212F302FD0
:1012D0004B2D5A2D87FD8BC2C701B6010E94CC2E23
:1012E00018160CF420C31092B70A1092B80A109284
:1012F000B90A1092BA0A2A94232809F05EC0809194
:10130000530481115AC080914C02813021F01D821A
:101310001E821F82188620E030E04EE753E46D8184
:101320007E818F8198850E941F3020E030E040E46C
:1013300051E40E94D02E6B017C0120E030E0A90135
:101340000E941B3011E060E0181694F020E030E0BD
:10135000A901C701B6010E94CC2EE894F7F810E06D
:1013600061E087FD05C010E060E0C12CD12C760162
:1013700089E00E944001612F8AE00E9440016BE0F9
:1013800070E080E090E064D98C019093EA0A809349
:10139000E90A20E030E04FE753E4C701B6010E94BC
:1013A000CC2E181634F4C12CD12C8FE7E82E83E410
:1013B000F82EB701A601C80114D980915804909164
:1013C0005904019709F078C18091EB0A9091EC0AD9
:1013D000A091ED0AB091EE0A8D839E83AF83B8870A
:1013E000C0902C0BD0902D0BE0902E0BF0902F0B7B
:1013F00000915B0410915C04D8018D909D90AD909C
:10140000BC90A70196016D817E818F8198850E9495
:10141000CC2E811128C28092EB0A9092EC0AA09205
:10142000ED0AB092EE0AEFEEFAE08091A30A9091F5
:10143000A40AA091A50AB091A60A80839183A283F1
:10144000B3838091FB0A9091FC0AA091FD0AB091B0
:10145000FE0A8D839E83AF83B8879C01AD01C701CF
:10146000B6010E94CC2ED8018D909D90AD90BC907D
:1014700081111FC28092FB0A9092FC0AA092FD0A81
:10148000B092FE0AEFEFFAE080919F0A9091A00AD5
:10149000A091A10AB091A20A80839183A283B38311
:1014A000409141045091420460914304709144047E
:1014B00090E080E0B3DB809158049091590401974B
:1014C00079F48091520481110BC0409149045091EC
:1014D0004A0460914B0470914C0481E090E09EDBE3
:1014E0008091580490915904019709F0E5C08091CA
:1014F0005304811118C020914D0430914E04409145
:101500004F0450915004AAE0B0E00E94D938AB01DA
:10151000BC0182E090E082DB8091580490915904F4
:10152000019709F0C9C040909C0350909D036090C2
:101530009E0370909F03E091A003F091A10380802F
:101540009180A280B380E091D003F091D10300811B
:101550001181E0919403F0919503E080F180E09196
:101560009203F091930311821082E091CA03F091EB
:10157000CB03F182E082E3DBE091CC03F091CD0379
:101580000190F081E02D4082518262827382F701E6
:101590002081318142815381C501B4010E941F30F5
:1015A0009B01AC01D8016D917D918D919C910E9420
:1015B000682EF8016083718382839383D701149628
:1015C0002D913D914D915C911797C501B4010E94F9
:1015D0001F309B01AC01F801648175818681978180
:1015E0000E94682ED80114966D937D938D939C93E1
:1015F0001797E0919203F091930381E090E091833B
:1016000080838091410490914204A0914304B09161
:1016100044040196A11DB11D80934104909342049E
:10162000A0934304B093440480919C0390919D0344
:10163000A0919E03B0919F03E0915B04F0915C0444
:1016400080839183A283B3838091490490914A045B
:10165000A0914B04B0914C040196A11DB11D809343
:10166000490490934A04A0934B04B0934C042091F6
:101670005804309159048091530421303105B1F45C
:10168000811114C040914D0450914E0460914F045B
:10169000709150044F5F5F4F6F4F7F4F40934D04E9
:1016A00050934E0460934F04709350048F5F8A30C0
:1016B00008F025C18093530460960FB6F894DEBFFE
:1016C0000FBECDBFDF91CF911F910F91FF90EF9093
:1016D000DF90CF90BF90AF909F908F907F906F9052
:1016E0005F904F903F902F9008958091AF0A909116
:1016F000B00AA091B10AB091B20A8D839E83AF83E4
:10170000B8870130110529F080910D04882309F470
:1017100094CD80911B0B882359F0833029F481E00C
:1017200090E080931B0B89CD082E000C990BF9CF0C
:1017300082E090E0F6CF8091480290914902A0911A
:101740004A02B0914B028D839E83AF83B8870130EC
:10175000110529F080910D04882309F46ECD809144
:101760001A0B882359F0833029F481E090E08093AC
:101770001A0B63CD082E000C990BF9CF82E090E094
:10178000F6CFB401C5010E94CC2E87FF09C093019A
:10179000A801C701B6010E941B3018160CF4BAC08C
:1017A0002091EF0A3091F00A4091F10A5091F20A2B
:1017B0003401850169857A858B859C850E94672E19
:1017C0004B015C019301A801C701B6010E94672E7D
:1017D0009B01AC01C501B4010E94D02E6093B30AF5
:1017E0007093B40A8093B50A9093B60A57CD692DC9
:1017F000782D872D962D0E94CC2E87FF0BC0212F90
:10180000302F4B2D5A2DC701B6010E941B301816E0
:101810000CF495C02091FF0A3091000B4091010B10
:101820005091020B840153016D857E858F859889C7
:101830000E94672E2B013C01212F302F4B2D5A2D5A
:10184000C701B6010E94672E9B01AC01C301B20122
:101850000E94D02E6093B70A7093B80A8093B90A99
:101860009093BA0A48CD4090F30A5090F40A6090E1
:10187000F50A7090F60AA3019201C701B6010E9411
:10188000CC2E81110BC08092F30A9092F40AA092A0
:10189000F50AB092F60AE7EFFAE0C7CDA30192018C
:1018A0006D817E818F8198850E94CC2E87FFEBCF42
:1018B000B2CD4090030B5090040B6090050B7090DC
:1018C000060BA3019201C701B6010E94CC2E811123
:1018D0000BC08092030B9092040BA092050BB09268
:1018E000060BE7E0FBE0D0CDA30192016D817E8184
:1018F0008F8198850E94CC2E87FFEBCFBBCD1092B5
:101900005304DACE9301A801B401C5010E94CC2E84
:1019100087FD3DCF2091F70A3091F80A4091F90AEE
:101920005091FA0A47CF212F302F4B2D5A2D692D78
:10193000782D872D962D0E94CC2E87FD60CF20918B
:10194000070B3091080B4091090B50910A0B6CCF9B
:101950008F929F92AF92BF92DF92EF92FF920F937E
:101960001F93CF93DF9384E090E0FAD1ECE8F3E0AB
:1019700088E594E097838683CBE5D4E0D093CD03CC
:10198000C093CC0365E474E0758B648B28E134E08C
:1019900037AF26AF42E154E05093D1034093D003D8
:1019A00029E334E03093CF032093CE032BE334E0DC
:1019B0003093D3032093D20324E134E03093D50352
:1019C0002093D40326E134E03093D7032093D60349
:1019D000F093F703E093F603F583E48321E030E02E
:1019E000DC012D933C9387E294E02FE134E0DC01AD
:1019F0002D933C932CE13BE0DA012D933C939187AE
:101A0000808710920D0486E892E0938782874DE5E7
:101A100054E059834883812C912C80E8A82E8FEBC9
:101A2000B82E8092540490925504A0925604B0921D
:101A300057049FE6892E92E1992E93E8A92E9AE306
:101A4000B92EDB018D929D92AD92BC921397C9E2A3
:101A5000D4E086EA9AE8A6EDB1E688839983AA8362
:101A6000BB8389EF95E5ADEDBAE480932D049093A7
:101A70002E04A0932F04B09330048AE39FE8A1E2E0
:101A8000B0E58093310490933204A0933304B09373
:101A9000340480E799E2ABEDB0ED80933504909388
:101AA0003604A0933704B0933804A0E8B3E0B383BE
:101AB000A283EEE6F3E01196FC93EE938BE892E0BE
:101AC00091838083938382839583848397838683A2
:101AD000918780876BE17BE0738762876AE17BE0B7
:101AE0007587648797878687918B808B8FE394E0D7
:101AF00015969C938E9314971396DC93CE9312971E
:101B000017965C934E931697CBEBDAE08FEF8093AA
:101B1000190BF9011082118212821382148215822C
:101B20001682178280912C0B90912D0BA0912E0B79
:101B3000B0912F0B88AB99ABAAABBBAB88AF99AF79
:101B4000AAAFBBAF8093FB0A9093FC0AA093FD0A57
:101B5000B093FE0A8093030B9093040BA093050BA4
:101B6000B093060B1F8A1C8600E012E0F801808902
:101B70009189A289B3898B8B9C8BAD8BBE8B812C79
:101B8000912C540183948D869E86AF86B88A42ED4F
:101B90005AE063E082E00E94E301DD24D394D98A15
:101BA0001A8A8F890E94E1021B861882F8018489B3
:101BB0009589A689B7898F839887A987BA878982EB
:101BC0009A82AB82BC8246EC5AE065E184E10E94D5
:101BD000E301DD821E828B850E94E10218A289A2A8
:101BE0009AA2ABA2BCA261E089E00E943801DDA20A
:101BF000188E898E9A8EAB8EBC8E61E08AE00E9430
:101C00003801DD8E18A689A69AA6ABA6BCA6E12C43
:101C1000F12C8701A80197016BE070E080E090E073
:101C20000E946C039FA78EA7DDA6DF91CF911F9125
:101C30000F91FF90EF90DF90BF90AF909F908F90AB
:101C400008958091C70A811114C081E08093C70A6A
:101C50008091C80A9091C90AA091CA0AB091CB0A92
:101C60000197A105B10529F48091CC0A81110E9448
:101C7000EE028091BB0A811114C081E08093BB0AFF
:101C80008091BC0A9091BD0AA091BE0AB091BF0A92
:101C90000197A105B10529F48091C00A81110E9424
:101CA000EE028091DB0A811103C081E08093DB0AA0
:101CB0008091D30A811103C081E08093D30A80917F
:101CC000E30A81112EC081E08093E30A8091E40A47
:101CD0009091E50AA091E60AB091E70A0197A10563
:101CE000B105F9F48091E80A8823D9F06BE070E03F
:101CF00080E090E00E9428039093EA0A8093E90A2A
:101D000040E050E0BA010E94F1026BE070E080E038
:101D100090E00E9428039093EA0A8093E90A0C94C9
:101D2000BD03089560E070E080E89FE7089560E0FB
:101D300070E080E89FE7089560E070E080E89FEF42
:101D4000089560E070E080E89FEF089560E070E043
:101D500080EC9FEF089560E070E080EC9FEF0895C5
:101D6000F5DF6093300B7093310B8093320B9093BF
:101D7000330BF1DF6093240B7093250B8093260BBC
:101D80009093270BCFDF60932C0B70932D0B8093D8
:101D90002E0B90932F0BCBDF6093280B7093290BA6
:101DA00080932A0B90932B0BC7DF6093340B7093B7
:101DB000350B8093360B9093370BC3DF6093380B52
:101DC0007093390B80933A0B90933B0B08954F928D
:101DD0005F926F927F928F929F92AF92BF92CF92BB
:101DE000DF92EF92FF920F931F93F8944090750447
:101DF000509076046090770470907804C0906904E5
:101E0000D0906A04E0906B04F0906C04413051056E
:101E100009F0A4C09B01AC012419350946095709F2
:101E200029013A0100917104109172042091730408
:101E30003091740448015901840C951CA61CB71CF0
:101E400080169106A206B306A0F400916D041091CD
:101E50006E0420916F04309170040F5F1F4F2F4F5D
:101E60003F4F00936D0410936E0420936F043093E2
:101E700070048092710490927204A0927304B092E4
:101E8000740400916D0410916E0420916F043091E0
:101E900070048092790490927A04A0927B04B092AC
:101EA0007C0400937D0410937E0420937F04309380
:101EB0008004609375047093760480937704909304
:101EC0007804A8EEB3E0A30192010E94D9386C0D0A
:101ED0007D1D8E1D9F1D6093690470936A0480931D
:101EE0006B0490936C0400914D0210914E0220916E
:101EF0004F02309150020F3F1F4F2F4F3F4FF1F0D5
:101F000000914D0210914E0220914F0230915002EB
:101F10000E3F1F4F2F4F3F4F89F0C0904D02D09082
:101F20004E02E0904F02F090500221E08C149D048C
:101F3000AE04BF0408F420E02093850478941F9138
:101F40000F91FF90EF90DF90CF90BF90AF909F9058
:101F50008F907F906F905F904F9008954B015C0140
:101F600084189508A608B708A3019201261B370B11
:101F7000480B590B6415750586059705D0F0821638
:101F80009306A406B50640F420E030E0A9018114D0
:101F90009104A104B10491F4A8EEB3E00E94D938F1
:101FA000A7019601261B370B480B590BCA01B90133
:101FB000C5CF82169306A406B50670F7A8EEB3E067
:101FC000A50194010E94D9386C0D7D1D8E1D9F1DA9
:101FD000B5CFFDCECF93DF9300D01F92CDB7DEB744
:101FE0001C821B821A821982109281041092820430
:101FF0001092830410928404BE016F5F7F4FCE0164
:1020000003960E94BE2C69817A818B819C810E94FB
:10201000DF25009761F4BE016F5F7F4FCE0103960D
:102020000E94CA2C69817A818B819C812FD50F9067
:102030000F900F900F90DF91CF910895FF920F9323
:102040001F93CF93DF93082F60E070E0CB010E94D5
:10205000C432FF24F3940E94C824EC01892B89F038
:1020600010E0CE3F8FEFD80769F0002361F160E008
:1020700070E0CB010E94C43281E090E0892B59F3DB
:1020800022C011E026D5EC01892B21F0CE3F8FEF45
:10209000D80759F711111EC011E0229609F410E07B
:1020A0000E947824EC01892B21F0CE3F8FEFD807D6
:1020B000E1F6111111C011E0CE3F8FEFD80709F4FE
:1020C00010E001110BC0CE01DF91CF911F910F9154
:1020D000FF90089511E0E4CF11E0F3CF60E070E0ED
:1020E000CB010E94C4321F25812F90E0C7CFCF9330
:1020F000DF9380918504882321F060E070E0CB01BC
:102100004DD636D6D0E0C0E0892B71F06AE070E0A1
:1021100080E090E00E94C43281E090DF29D62196D1
:10212000C03D27E0D20781F728D60E9433261092BF
:102130009D0410929C0410929604109297041092A1
:1021400098041092990410929204109293041092A1
:1021500094041092950410928E0410928F041092A1
:1021600090041092910410928A0410928B041092A1
:102170008C0410928D0410928604109287041092A1
:102180008804109289044EEF5FEF6FEF7FEF40936A
:102190004D0250934E0260934F0270935002109282
:1021A0008504E9E7F4E028E0DF011D922A95E9F7CC
:1021B00010927504109276041092770410927804AD
:1021C00010927104109272041092730410927404AD
:1021D00010926D0410926E0410926F0410927004AD
:1021E0001092690410926A0410926B0410926C04AD
:1021F000DF91CF9108951092A9041092AA04109231
:10220000AB041092AC041092A8048091B104909198
:10221000B2049093A7048093A6041092A504109290
:10222000A4041092A0041092A1041092A20410928F
:10223000A3041092AE041092AD0490E080E00895E3
:10224000CF92DF92EF92FF920F931F93CF938C0167
:10225000019709F055C02091B1043091B2048091EA
:10226000A6049091A7044091B1045091B2045093F8
:10227000A7044093A6042817390781F01092A504FB
:102280001092A4041092A0041092A1041092A2042F
:102290001092A3041092AE041092AD048091B10488
:1022A0009091B204019761F58091AD049091AE04D4
:1022B000892B21F480915102811112C08091AD04CB
:1022C0009091AE040197E1F48091A0049091A10453
:1022D000A091A204B091A3040197A105B10581F4D6
:1022E0001092A0041092A1041092A2041092A304D0
:1022F0001092510282E090E09093AE048093AD047E
:102300008091B1049091B204019709F01CC18091B1
:10231000C7049091C8048017910709F014C18091F7
:10232000C3049091C404A091C504B091C604009761
:1023300009F409C12091C20421110DC04091C304C8
:102340005091C4046091C5047091C604452B462B7E
:10235000472B09F4F8C02091AD043091AE0422302F
:10236000310509F0F0C02091A4042111ECC0FC015A
:10237000C080D180E280F3808091A804882309F492
:10238000D3C08091B4049091B504892B09F4FEC0A8
:102390002091B4043091B50481E02230310509F078
:1023A00080E02091B4043091B504C1E021303105C2
:1023B00049F02091B4043091B504C1E022303105D8
:1023C00009F0C0E0882309F456C02091BE04309182
:1023D000BF044091C0045091C104C701B6010E94DE
:1023E0001B3087FD14C02091BE043091BF04409182
:1023F000C0045091C1046091A9047091AA04809115
:10240000AB049091AC040E94CC2E87FD22C0209199
:10241000BE043091BF044091C0045091C104C70173
:10242000B6010E941B30181634F52091BE0430917D
:10243000BF044091C0045091C1046091A9047091FF
:10244000AA048091AB049091AC040E94CC2E81111F
:1024500012C08091B6049091B704A091B804B091D5
:10246000B904892B8A2B8B2B19F481E08093A50466
:1024700081E08093A404CC2309F456C02091BE04CB
:102480003091BF044091C0045091C104C701B6010E
:102490000E94CC2E87FF14C02091BE043091BF044F
:1024A0004091C0045091C1046091A9047091AA04A4
:1024B0008091AB049091AC040E941B3087FF22C036
:1024C0002091BE043091BF044091C0045091C104DA
:1024D000C701B6010E94CC2E811126C02091BE04F6
:1024E0003091BF044091C0045091C1046091A9048F
:1024F0007091AA048091AB049091AC040E941B30AF
:10250000181694F48091B6049091B704A091B80481
:10251000B091B904892B8A2B8B2B19F481E080931D
:10252000A50481E08093A40481E09091A40491111A
:1025300080E08093A804C092A904D092AA04E092FB
:10254000AB04F092AC040130110509F067C1809131
:10255000AD049091AE04892BD9F41092B30410927B
:10256000A40480915102882379F082E090E0909356
:10257000AE048093AD04109251022091B1043091C9
:10258000B20481E0232BE9F080E01BC081E009CF99
:10259000109251028091B304882349F01092A5044F
:1025A0001092AE041092AD041092B304EDCF80915E
:1025B000B1049091B204892BE1F08091A4041092AF
:1025C000A4042091AD043091AE042230310509F409
:1025D0005EC088F42115310509F448C02130310569
:1025E00009F4F3C01092A5041092A4041092B3044D
:1025F00038C081E0E6CF2330310509F4B1C0243082
:10260000310581F74091A0045091A1046091A2048A
:102610007091A304411551056105710561F04150A8
:102620005109610971094093A0045093A10460937A
:10263000A2047093A3044091A0045091A10460915E
:10264000A2047091A304452B462B472BD9F420916B
:10265000AF043091B0042130310509F046C010922A
:10266000A5041092AE041092AD040CC080915102EA
:10267000882341F082E090E09093AE048093AD0413
:102680001092510210929E048091A504CEC088231E
:10269000C9F38091B6049091B704A091B804B091A9
:1026A000B904181619061A061B060CF07DC0809195
:1026B000B1049091B204019709F076C08091B604FC
:1026C0009091B704A091B804B091B9048093A0048C
:1026D0009093A104A093A204B093A30483E090E09C
:1026E0009093AE048093AD04CDCF4091BA04509145
:1026F000BB046091BC047091BD04452B462B472B55
:10270000A9F01092A5048091BA049091BB04A09105
:10271000BC04B091BD048093A0049093A104A09345
:10272000A204B093A30481E090E0DACF882399F06B
:102730008091520290915302A0915402B09155029F
:102740008093A0049093A104A093A204B093A30447
:1027500084E090E0C5CF1092A50482E090E0C0CF65
:102760008091A0049091A104A091A204B091A3042F
:102770000097A105B10559F00197A109B10980930E
:10278000A0049093A104A093A204B093A304809109
:10279000A0049091A104A091A204B091A304892B5C
:1027A0008A2B8B2B09F06ECF8091520290915302AD
:1027B000A0915402B0915502892B8A2B8B2B09F4DE
:1027C0004ECF81E08093A504B3CF4091A0045091F7
:1027D000A1046091A2047091A30441155105610503
:1027E000710561F041505109610971094093A004DC
:1027F0005093A1046093A2047093A3044091A00499
:102800005091A1046091A2047091A304452B462B22
:10281000472B09F037CF8111C7CF9FCF80919E04FE
:10282000882309F431CF80919F04CF911F910F919C
:10283000FF90EF90DF90CF9008951092A90410922E
:10284000AA041092AB041092AC041092A804109247
:10285000AE041092AD041092A7041092A604109238
:10286000C8041092C7041092A5041092A4041092F8
:10287000A0041092A1041092A2041092A30410923A
:102880009F0410929E041092C3041092C4041092EC
:10289000C5041092C6041092C2041092BE04109295
:1028A000BF041092C0041092C10488EE93E0A0E02F
:1028B000B0E08093520290935302A0935402B093DD
:1028C00055021092BA041092BB041092BC041092EC
:1028D000BD041092B6041092B7041092B80410927E
:1028E000B9041092B5041092B40481E080935102AF
:1028F0001092B3041092B2041092B1041092B0047A
:102900001092AF0490E080E008958091B10490911E
:10291000B204892B19F580915102882351F08091DE
:10292000B304811106C081E080939F0480939E04CC
:1029300008952091B3043091510281E090E0332357
:1029400011F090E080E030E082239323892B21F086
:1029500010929F0481E0EACF10929E04089582E0D5
:1029600090E0FA01918380838FEF9FEF0895CF93DA
:10297000DF93EA01009711F00E944D271982188217
:1029800090E080E0DF91CF910895DB01009719F48A
:102990008FEF8C9308952EEF2C93FC013F96EF3030
:1029A000F10508F034C08827E752FB4E8F4F0C9496
:1029B000D138051503150115FF14FD14F914FB1486
:1029C000F714F514F314F014EC14E814EE140715CE
:1029D00080E311968C93089589E2FBCF82E2F9CFD0
:1029E00011961C92089583E2F4CF81E2F2CF81E147
:1029F000F0CF87E2EECF8AE2ECCF80E1EACF84E24B
:102A0000E8CF88E2E6CF86E2E4CF81E3E2CF80E25E
:102A1000E0CF8091D5049091D60408959093D60488
:102A20008093D50408958091D40408959091D4049E
:102A3000892B8093D4040895982F90958091D40485
:102A400089238093D40408958091D30408958091BC
:102A5000D1049091D20408956115710559F0FB01DC
:102A600030E020E070E060E02417350719F06115D0
:102A7000710511F0CB010895A081B181A817B907A4
:102A800009F4BF012F5F3F4F3696EECF8091D704F8
:102A900081111CC060D266D29093CA048093C9048D
:102AA0000E945E1F0E94701F9093CE048093CD04FD
:102AB0000E94E0230E94E7239093CC048093CB04F0
:102AC00081E08093D70490E080E0089584EF9FEF49
:102AD00008958F929F92AF92BF92CF92DF92EF9222
:102AE000FF920F931F93CF93DF9300D000D000D0BD
:102AF0001F92CDB7DEB71A86198618861F821E82EE
:102B00001D821C821B821A8219828091D70407EFD2
:102B10001FEF882309F49CC08E010D5F1F4F9E019B
:102B20002B5F3F4FAE01495F5F4FBE01675F7F4F35
:102B300090E080E00E9464258C01009721F00596CA
:102B4000029708F0DBC029853A852115310509F483
:102B500002C1ED80FE804B815C81B701640F751F5F
:102B60008F8198858617970708F4F5C0E20EF31E4B
:102B7000D7019C91903C09F07FC04230510508F488
:102B80007BC011968C914091D5045091D604452B71
:102B900009F49CC0913F08F071C02CE1290F2D3041
:102BA00008F48BC02DE2290F203108F489C0903C35
:102BB00021F48150823008F483C088E3890F8B3080
:102BC00008F481C095ECC92E94E1D92EEFEAF4E126
:102BD0006D817E81AE014F5F5F4F89859A85199522
:102BE0005C01C114D104A1F189809A8081149104FF
:102BF00079F18B819C818815990508F487C010E0D4
:102C000000E04B815C8170E060E0C7010E94FB380E
:102C100001151105E9F449815A8169857A858D810B
:102C20009E81680F791FC501F6011995E980FA8028
:102C30000D811E812F81388549855A856FEF7FEF81
:102C400081E090E00E94FF248C01892B09F056C09E
:102C5000C8012A960FB6F894DEBF0FBECDBFDF9134
:102C6000CF911F910F91FF90EF90DF90CF90BF9089
:102C7000AF909F908F90089580E085CF30E020E066
:102C8000220F331FF901E753FB4F0190F081E02D34
:102C9000309709F497CF892F90E01995009709F4A0
:102CA00091CFDC011296ED91FC9113971496CD9083
:102CB000DC90309709F08CCF1FC021E030E0E0CFEE
:102CC00022E030E0DDCF23E030E0DACFD12CC12CA0
:102CD000E7EBF4E19F3F09F07BCFE091C904F0916D
:102CE000CA04309721F4C90104EF1FEF0CC08FEF25
:102CF00090E019950097A9F604EF1FEF89859A8552
:102D0000009709F4A5CF0E944D27A2CF0E942E263E
:102D10008C0189859A850E944D2770E060E0C4018E
:102D20000E94C72598878F830E94FC249E838D83F1
:102D30006F8178856115710559F0C8010E94AC2832
:102D40009A87898706EF1FEF892B09F058CF59CF53
:102D500008EF1FEF56CF08EF1FEFD0CF2091D70419
:102D6000222319F020E00C94751F87EF9FEF089540
:102D70008091D5049091D60408950E94EC230E947E
:102D80004623F5D0E9ECF4E088E0DF011D928A9556
:102D9000E9F71092D70490E080E008950C94A32105
:102DA00021E040E050E0BA010C94751F86E090E00D
:102DB000FA019183808390E080E0089547E050E03D
:102DC0006EE872E049CEDF92EF92FF920F931F936D
:102DD000CF93DF938A01EC01C60FD71FE090DB048D
:102DE000F090DC04D9800E941626D816190678F0D7
:102DF00082E090E0F801918380838EEF9FEFDF9176
:102E0000CF911F910F91FF90EF90DF900895EF28E1
:102E100041F482E090E0F8019183808384EF9FEF9A
:102E2000EECF89818093DA0490E00196F8019183D6
:102E3000808390E080E0E3CFCF93DF93EA010E94AC
:102E40005422882321F00E9423260E94552282E0EA
:102E500090E0998388838BEF9FEFDF91CF91089566
:102E6000CF93DF93EB0186E0FB0111928A95E9F79E
:102E70008FEF8883D8DD8983E7DD8A83E8DD9D8352
:102E80008C83DF91CF910895CF93DF93EA010E9465
:102E90005722811109C082E090E09983888385EFF1
:102EA0009FEFDF91CF91089590E080E0B7DD81E062
:102EB00090E09983888390E080E0F3CF0F931F9395
:102EC000CF93DF93EA018C01060F171F0E94572250
:102ED00081110BC082E090E09983888385EF9FEF9A
:102EE000DF91CF911F910F910895F8018181823078
:102EF00038F082E090E0998388838EEF9FEFF0CFE7
:102F000081E090E08BDD88E090E09983888390E019
:102F100080E0E6CFCF93DF930097D1F4EB01FB0184
:102F2000329686E0DF011D928A95E9F78FEF88835C
:102F300085E089831A820E9416268B830E941526BB
:102F40009D838C8381E08E838F83DF91CF91089561
:102F5000DF91CF911ACD8EED96E19093D9048093B5
:102F6000D80408958091D8049091D90408951092BE
:102F7000D9041092D80408958091DB049091DC0468
:102F80000895411105C0611571058105910561F034
:102F90006093DB047093DC048093DD049093DE0483
:102FA0004093DF0481E0089580E00895FF920F933D
:102FB0001F93CF93DF938A01EC01C60FD71FF980CF
:102FC0000E941626F816190668F082E090E0F801D3
:102FD000918380838EEF9FEFDF91CF911F910F91AF
:102FE000FF9008956C817D818E819F814B81C9DF27
:102FF000811108C082E090E0F8019183808384EF22
:103000009FEFEACF89818093DA0490E00196F8017E
:103010009183808390E080E0DFCFCF93DF93EA015C
:10302000FC01E60FF71F64817581868197814381DA
:10303000A8DF811109C082E090E09983888384EF42
:103040009FEFDF91CF91089581E090E0998388838D
:1030500090E080E0F6CFEBEDF4E0408151816281B9
:103060007381480F511D611D711D4083518362831F
:1030700073830895CF93C091DA044C2F50E0609190
:10308000DB047091DC0401960E94F2388C2FE3DFA0
:103090001092DA04CF910895009799F48091DB049F
:1030A0009091DC042FEFFB012083892B59F02091B4
:1030B000DA0430E02F5F3F4F2417350719F4CB01B6
:1030C000D9CF63CC0895009799F48091DB04909157
:1030D000DC042FEFFB012083892B59F02091DA04C7
:1030E00030E02F5F3F4F2417350719F4CB01C2CFD3
:1030F0004CCC089523E1AC01249FC001259F900D85
:103100001124E091E404F091E504E80FF91F238114
:1031100034812250310981E02230310508F080E00D
:1031200008950F931F93CF93DF930091E6041091BE
:10313000E704D0E0C0E080E00C171D0749F491E0FF
:10314000811190E0892FDF91CF911F910F91089508
:103150008111F5CFCE01CEDF2196EECFA091E40410
:10316000B091E504109729F12091E6043091E7042D
:1031700082179307F0F453E1589F9001599F300D47
:103180001124A20FB31FED91FC911197309789F094
:1031900012968C91681768F48BE0689FE00DF11D22
:1031A000112480819181892B21F081E0928149173E
:1031B00008F080E008959C0143E1429FC001439FD5
:1031C000900D1124E091E404F091E504E80FF91F5B
:1031D0008385823099F481E090E065817681409129
:1031E0005602509157026417750711F490E080E081
:1031F000892B21F081E02230310508F080E008952C
:10320000EF92FF920F931F93CF93DF93EA01FC019C
:10321000E60FF71F02811381E480F5804F2D6E2D9C
:10322000C8019CDF81110DC082E090E09983888302
:103230008EEF9FEFDF91CF911F910F91FF90EF9055
:103240000895C80157DF882339F082E090E0998320
:10325000888388EF9FEFEECF10935D0200935C02AE
:10326000E0925E02F0925F0281E090E099838883B1
:1032700090E080E0DFCFCF92DF92EF92FF920F934A
:103280001F93CF93DF937A01EC01C60FD71FC09035
:103290005C02D0905D0200915E0210915F02412FAE
:1032A000602FC6015BDF811110C082E090E0F70162
:1032B000918380838AEF9FEFDF91CF911F910F91D0
:1032C000FF90EF90DF90CF900895C60113DF882321
:1032D00041F082E090E0F7019183808388EF9FEFD7
:1032E000EBCF4C815D816E817F819A8189818F3F97
:1032F00041F082E090E0F701918380838EEF9FEFB1
:10330000DBCFE3E1EC9D9001ED9D300D1124E091C8
:10331000E404F091E504E20FF31F0190F081E02D49
:103320002BE0029FE00DF11D11240190F081E02DB2
:1033300027E0129FE00DF11D1124808391838B8182
:10334000828343835483658376831F5F10935F0278
:1033500081E090E0F7019183808390E080E0ACCF42
:10336000EF92FF920F931F93CF93DF937A018C011B
:10337000060F171FC091E404D091E504209781F057
:1033800021E030E0F801828193814091E604509180
:10339000E7048417950710F030E020E0232B71F448
:1033A00082E090E0F701918380838EEF9FEFDF91C1
:1033B000CF911F910F91FF90EF90089543E1489FA7
:1033C0009001499F300D1124C20FD31F93DE882333
:1033D00041F082E090E0F7019183808388EF9FEFD6
:1033E000E6CFF8012481358120383105C8F6878180
:1033F0008111D6CF4181842F90E08F7E009741F0DC
:1034000082E090E0F7019183808386EF9FEFCFCF3A
:103410004F833E832D83268128871986223010F41E
:1034200021E0288721E030E0F70131832083BFCFFE
:1034300088E090E0FA019183808390E080E0089535
:10344000FB018FEF808381E181838FEF9FEF938377
:10345000828380E890E095838483168217820895A2
:10346000FB018FEF808391E0918382839383848338
:1034700084E3858381E090E0978386830895BF92FB
:10348000CF92DF92EF92FF920F931F93CF93DF9330
:10349000DA01FC01E60FF71F8181813081F082E0C3
:1034A00090E08D939C938FEF9FEFDF91CF911F91D1
:1034B0000F91FF90EF90DF90CF90BF900895C28161
:1034C000D381B480858106811781E090E404F09077
:1034D000E504E114F10439F482E090E08D939C93CB
:1034E0008CEF9FEFE2CF2091E6043091E704C21702
:1034F000D30738F082E090E08D939C938EEF9FEF9E
:10350000D4CFC230D10538F082E090E08D939C9307
:1035100086EF9FEFCACF9B2D9D7FB1F78130A1F73A
:10352000B11005C00130110531F080E004C081E028
:1035300002301105D0F3882339F36D01CE01DADDB5
:10354000882341F082E090E0F6019183808388EF48
:103550009FEFABCF83E18C9FF0018D9FF00D112485
:10356000EE0DFF1DB38681E0848716870587108ADC
:10357000178681E090E0F6019183808390E080E0FF
:1035800094CF4CE050E068EB72E066CA8F929F9255
:10359000BF92CF92DF92EF92FF920F931F93CF9340
:1035A000DF93EA01FC01E60FF71F8281938104811A
:1035B000B580E091E404F091E504309791F482E065
:1035C00090E0998388838CEF9FEFDF91CF911F91DB
:1035D0000F91FF90EF90DF90CF90BF909F908F90D2
:1035E00008952091E6043091E7048217930738F09C
:1035F00082E090E0998388838EEF9FEFE6CF23E10E
:10360000289F6001299FD00C1124EC0DFD1DE08046
:10361000F180E114F10499F28281081748F78BE0F8
:10362000089F80011124E00EF11EF7018081918135
:10363000892B29F6BB20E1F2F7E0BF9E400111245F
:10364000C4010E941427F70191838083E091E40470
:10365000F091E504EC0DFD1D0190F081E02DE00FEF
:10366000F11F80819181009739F482E090E0998385
:1036700088838DEF9FEFA9CFA40170E060E00E94E6
:10368000FB388091E4049091E504C80ED91EF60140
:1036900080819181080F191FF801B28281E090E0CA
:1036A0009983888390E080E090CFAF92BF92CF92D1
:1036B000DF92FF920F931F93CF93DF93EA01FC01F8
:1036C000E60FF71F82819381F4800091E40410914A
:1036D000E5040115110581F482E090E09983888367
:1036E0008CEF9FEFDF91CF911F910F91FF90DF90B3
:1036F000CF90BF90AF9008952091E6043091E704F9
:103700008217930738F082E090E0998388838EEFE8
:103710009FEFE8CF2FEF2F0D2C3FA8F723E1289F35
:103720006001299FD00C11240C0D1D1DF801808112
:103730009181892B89F6FBE0FF9E50011124C50180
:103740000E941427F80191838083E091E404F091B2
:10375000E504EC0DFD1D80819181009739F482E034
:1037600090E0998388838DEF9FEFBCCFA50170E037
:1037700060E00E94FB38E091E404F091E504EC0D78
:10378000FD1DF28281E090E09983888390E080E0E3
:10379000A9CFCF92DF92EF92FF920F931F93CF9317
:1037A000DF93860F971FFC01028113818091E4044F
:1037B0009091E504892B81F082E090E0FA019183F9
:1037C00080838CEF9FEFDF91CF911F910F91FF903E
:1037D000EF90DF90CF900895C801B0E0A0E001978E
:1037E000A109B1098F3F9F4FA105B10540F082E0CB
:1037F00090E0FA01918380838EEF9FEFE4CF7A010E
:1038000083E1809F6001819FD00C1124C6010E943A
:103810001427EC01009741F482E090E0F7019183D6
:1038200080838DEF9FEFCFCFA60170E060E00E9414
:10383000FB38D093E504C093E4041093E7040093AD
:10384000E60490E080E02FEF3FEF41E061E070E0C0
:103850008017910741F481E090E0F7019183808324
:1038600090E080E0B0CF3A8B298B1B864C877E8717
:103870006D87188A1F8601966396EACFCF92DF92F2
:10388000EF92FF920F931F93CF93DF93EC01D12C14
:10389000C12C10E000E0F12CE12C6A8160171106C8
:1038A00009F0CCF483E0689FB0011124AE014F5EB3
:1038B0005F4FC7010E947927009721F02FEF3FEF5C
:1038C0003A8B298BDF91CF911F910F91FF90EF9051
:1038D000DF90CF900895E881F981EC0DFD1D4381C3
:1038E00054818D859E85489F9001499F300D589F3A
:1038F000300D1124C90101960115110519F44F81EC
:1039000044FD049661E070E00E94C725E816F906C0
:1039100008F47C010F5F1F4F8BE0C80ED11CBDCF98
:10392000F8942091E2043091E30481E021153105FF
:1039300009F080E0232B09F0789408952F923F92AC
:103940004F925F926F927F928F929F92AF92BF92AF
:10395000CF92DF92EF92FF920F931F93CF93DF935B
:103960003C01660E771EF301828193814C01B12CDC
:10397000A12CC091E404D091E504209769F021E0E6
:1039800030E06091E6047091E7048617970710F025
:1039900030E020E0232BD1F482E090E0FA01918323
:1039A00080838EEF9FEFDF91CF911F910F91FF905A
:1039B000EF90DF90CF90BF90AF909F908F907F90CF
:1039C0006F905F904F903F902F900895809260028B
:1039D00090926102A0926202B092630263E1689FDA
:1039E0009001699F300D1124C20FD31FF301818113
:1039F000833040F082E090E0FA019183808386EF8B
:103A00009FEFD1CF2A012B813C81232BF1F4288118
:103A100039819F8191FF2EC0232B09F46FC0209123
:103A2000E9049A81422F490F5527551FBA0141E0F9
:103A300050E06138710514F050E040E0452B09F486
:103A40005DC02A87920F9093E9048150823008F478
:103A500081C066DF882309F4DAC0F30181818130F7
:103A600009F48DC008F47BC0823009F4C8C090E02E
:103A700080E0ADC0232B09F441C02091E8049A8175
:103A8000E22FE90FFF27FF1F41E050E0ED3FF10576
:103A900014F050E040E0452B89F12A87920F909373
:103AA000E804D3CFA081B181A20FB31F11966C910E
:103AB000060F111D0196295F3F4F8417950794F358
:103AC0008D859E85089F1001099F300C189F300C32
:103AD0001124C114D104D1F48F8184FF17C00E9436
:103AE0001526F5E02F0E311C21E08215930508F410
:103AF00020E0A701455F5F4F21110EC082E090E0FA
:103B0000F2019183808387EF9FEF4DCF0E941526AE
:103B10002FEF221A320AE8CF88819981E80EF91E28
:103B2000F70114830383FFEFCF1ADF0A7A018A813A
:103B30008C151D0409F00CF48CCFE881F981EE0D91
:103B4000FF1D428150E030E020E010E000E090E016
:103B500080E0B3CFF12CE12CD12CC12CE8CF81E057
:103B600090E09C838B83DDDA882309F480CF81E0A9
:103B700090E00E940E1580E40E941C1578CF898980
:103B80009A89019661F083E090E09C838B8382E0C8
:103B900090E00E940E1580E40E94161568CF8D817A
:103BA0009E81209156023091570282179307D1F4DB
:103BB00060915A0270915B02AE014F5E5F4F80913F
:103BC0005802909159020E946B280097E1F2789474
:103BD00022E030E0F20131832083892BA9F08DEFC0
:103BE0009FEFE1CE22E082169104A104B1045CF6BD
:103BF000039748F6CE0142DE188A1F86E6CF82E0A0
:103C000090E09C838B8333CF90E080E0CCCE82E049
:103C100090E0F2019183808385EF9FEFC4CE8F9275
:103C20009F92AF92BF92CF92DF92EF92FF920F934B
:103C30001F93CF93DF93EA018C01060F171FF80142
:103C40008181833098F082E090E09983888386EFC9
:103C50009FEFDF91CF911F910F91FF90EF90DF9039
:103C6000CF90BF90AF909F908F9008958091E40483
:103C70009091E504892B61F081E090E02091E604C9
:103C80003091E704232B11F490E080E0892B39F484
:103C900082E090E0998388838EEF9FEFDACF40DE59
:103CA000882309F4E1C0F8018181813009F497C0CB
:103CB000E8F0823099F42091E6043091E704E09135
:103CC000E404F091E50490E080E041E050E0281742
:103CD000390709F0BFC025DA811117C0789481E057
:103CE00090E09983888390E080E0B3CF2091E60450
:103CF0003091E704E091E404F091E50490E080E085
:103D000041E050E02817390741F481E090E00E943B
:103D10000E1580E40E941C15E1CF63817481672B2E
:103D200011F05483438301967396ECCFE091E40441
:103D3000F091E504E00FF11F238134812230310539
:103D4000D9F4218932892F3F3F4FB1F42581368143
:103D500040915602509157022417350761F5AF0183
:103D60004F5E5F4F60915A0270915B0280915802E2
:103D7000909159020E946B28EFEFCE1ADE0AEE0AEC
:103D8000FE0A0D5E1F4F4091E6045091E70470E07B
:103D900060E0C416D506E606F7064CF5009731F24A
:103DA0007894892B09F49BCF82E090E099838883F3
:103DB0008DEF9FEF4ECF42E0C416D104E104F10431
:103DC000DCF623303105C0F6CF0158DDE091E40484
:103DD000F091E504E00FF11F108A1786CDCF10E0B7
:103DE00000E090E080E0C12CD12C7601CCCF009790
:103DF000B9F610E000E0812C912C540183E0E82E0C
:103E0000F12C1AC0E091E404F091E504E00FF11FF9
:103E100083819481029749F4F482E38282E090E006
:103E20000E940E1580E40E941615FFEF8F1A9F0A5C
:103E3000AF0ABF0A0D5E1F4F8091E6049091E70420
:103E4000B0E0A0E088169906AA06BB06DCF290E076
:103E500080E0A6CF638174816230710511F45483D0
:103E600043830196739633CF82E090E099838883F1
:103E700085EF9FEFEECE0097B9F48FEFFB018083C3
:103E8000209160023091610243E1429FC001439F53
:103E9000900D1124E091E404F091E504E80FF91F7E
:103EA0008285FB01818308950C94C51488E090E01D
:103EB000FA019183808390E080E008951092E304FA
:103EC0001092E204E4EEF4E086E0DF011D928A95B0
:103ED000E9F781EC9AE19093E1048093E00408957E
:103EE0008091E0049091E10408952F923F924F92C7
:103EF0005F926F927F928F929F92AF92BF92CF927A
:103F0000DF92EF92FF920F931F93CF93DF93CDB782
:103F1000DEB760970FB6F894DEBF0FBECDBFF89442
:103F2000E091E204F091E3043196F093E304E0932E
:103F3000E2047894A091E404B091E504BA83A983E3
:103F4000109709F4FAC1E091E604F091E704EF2B31
:103F500009F4F3C128874B875C876D877E879A8732
:103F60008987B88BAF87312C212CF12C512C412C17
:103F70008091E6049091E7042816390610F4FF209A
:103F800029F1F8948091E2049091E30401979093D1
:103F9000E3048093E2047894C20160960FB6F8942B
:103FA000DEBF0FBECDBFDF91CF911F910F91FF906C
:103FB000EF90DF90CF90BF90AF909F908F907F90C9
:103FC0006F905F904F903F902F900895B10190E0D7
:103FD00080E089D4682EEF85F889878181FD3DC016
:103FE000838194810397C9F5258136813C832B8396
:103FF00089859A852817390781F5C101DCD8782E83
:104000008823A9F1AF85B8891F968D919C9150970F
:10401000019621E01D964D915C918417950709F05A
:1040200020E02F83B12CA12CEF85F88982818A159D
:104030001B0419F014F0FF20E9F0F885FF2309F4C0
:104040006CC1AF85B88950961C921E921F9766204E
:1040500021F0B10190E080E048D4FFEF2F1A3F0A31
:104060002F8538892D5E3F4F388B2F8781CFB1E068
:10407000BF83D8CFC1D49E838D83E885EE23E9F03A
:10408000772009F43CC1AF85B8891F968D919C912A
:10409000892B79F0BBE0BA9DC001BB9D900D112426
:1040A000AF85B889ED91FC91E80FF91F8581968164
:1040B000F4D6BFEFAB1ABB0AB7CF81E0772039F057
:1040C000EF85F88927853089232B09F080E0F82EC9
:1040D000E12CA114B10439F4AF85B8891796EC909E
:1040E000E4FAEE24E0F8BBE0BA9D6001BB9DD00C81
:1040F0001124882309F424C1AF85B889ED91FC917E
:104100001197EC0DFD1D438154811D962D913C911D
:10411000429FC001439F900D529F900D1124E110CA
:104120005DC001969087878361E070E0878190850C
:104130002ED5EF85F88921893289008111810C0DF6
:104140001D1D2F3F320709F44BC0BC01C9010E945D
:10415000AC28D80116969C938E931597AF85B88995
:10416000ED91FC911197EC0DFD1D05811681011556
:10417000110509F4CDC0ED81FE810E0F1F1F1A96A7
:104180008C918A0DD8018C93E1102FC00F5F1F4FC7
:10419000AF85B889ED91FC91EC0DFD1D128701876B
:1041A000AF85B889ED91FC91EC0DFD1D858196815F
:1041B000892B09F4A4C080915602909157022B815B
:1041C0003C812817390709F465C0772011F0018573
:1041D0001285912C812C1A8219824AC00596A2CF91
:1041E00023D6F80196838583B9CF8B859C85AD85D1
:1041F000BE85F80181839283A383B4830B5F1F4F35
:10420000C7CFE080F180E80CF91CD70113966D91BF
:104210007C9114978C918F3F09F473C0E1E0F0E03A
:1042200002C0EE0FFF1F8A95E2F7CF01092E000CA6
:10423000AA0BBB0BFB0140815181628173818423F6
:104240009523A623B72321E0892B8A2B8B2B09F4F6
:1042500020E0D8012C93D70111968C91080F111DE5
:10426000E981FA813196FA83E983F7E08F0E911C98
:10427000AF85B889ED91FC91EC0DFD1D82812981FE
:104280003A818217130611F00CF0BBCF772011F0A2
:10429000128701873F81332391F1AF85B889ED9172
:1042A000FC91EC0DFD1D61E070E0878190856FD47D
:1042B000AF85B889ED91FC91EC0DFD1DE780F08490
:1042C00045815681E1E0F0E0662011F0F0E0E0E0A9
:1042D0000D811E819C01B101882799278E1B9F0BA0
:1042E0008ED32C01892B59F0EF85F889808191813B
:1042F000C80ED91ED60115968D919C91CED5F12C64
:10430000D8CEF701418150E0C8010E94F238A3CF16
:1043100086EF482E55245A94CCCEEF85F8898785B0
:1043200090890196908B878725853685821793071C
:1043300009F08DCE108A17868ACE512C412C21CEC1
:1043400010E000E02DCF2F923F924F925F926F923C
:104350007F928F929F92AF92BF92CF92DF92EF9215
:10436000FF920F931F93CF93DF938091E40490917A
:10437000E50410E000E0892BA9F0D2DA0AEF1FEF84
:10438000882381F02090E6043090E704C091E40493
:10439000D091E504D12CC12C10E000E02C143D0498
:1043A000A9F47894C801DF91CF911F910F91FF90EC
:1043B000EF90DF90CF90BF90AF909F908F907F90C5
:1043C0006F905F904F903F902F900895C6010E948C
:1043D000DB18882309F18B819C810397E9F48F8591
:1043E0009889892BC9F0B60190E080E07CD221E069
:1043F00030E0882311F030E020E044245524421AB4
:10440000530AB12CA12C912C812C8A818815190476
:1044100009F038F4188A1F864FEFC41AD40A63963D
:10442000BDCFE881F981EA0DFB1D85819681892B3D
:10443000A1F161E070E087819085A9D33C01DCD2D5
:104440008C01E881F981EA0DFB1D8185928525812A
:104450003681200F311FAC01421B530B9A0147815B
:104460005085421B530B70E060E00E94FB38E881EE
:10447000F981EA0DFB1DE780F084458156819301A7
:10448000B601C201BCD28C01892B39F0E881F981D7
:10449000EA0DFB1D8581968100D55FEF851A950A8F
:1044A0008BE0A80EB11CB1CF3BCA789408952F922F
:1044B0003F924F925F926F927F929F92AF92BF9284
:1044C000CF92DF92EF92FF920F931F93CF93DF93E0
:1044D00000D000D0CDB7DEB70091E4041091E50420
:1044E000992493940115110509F43EC0A090E604A7
:1044F000B090E70415DA982E8823B1F11092E50404
:104500001092E4041092E7041092E6041092E8047A
:104510001092E9048FEF9FEFDC018093600290938B
:104520006102A0936202B0936302789480D31E83E9
:104530000D83C12CD12C7601C501B0E0A0E08983A8
:104540009A83AB83BC8322242A94322C89819A815A
:10455000AB81BC81C816D906EA06FB06F4F0C80197
:104560009CD480E40E941C15892D26960FB6F894E1
:10457000DEBF0FBECDBFDF91CF911F910F91FF9096
:10458000EF90DF90CF90BF90AF909F907F906F9013
:104590005F904F903F902F900895AD81BE8115960A
:1045A0008D919C9116972091560230915702821757
:1045B0009307D1F451968D919C91BCD5ED81FE81EC
:1045C00080819181B12CA12C412C512C3201892B5D
:1045D00091F5BFEFCB1ADB0AEB0AFB0AED81FE81F6
:1045E0007396FE83ED83B2CFB2E0CB16D104E10423
:1045F000F10424F7039710F7ED81FE8181899289F8
:104600008F3F980709F011D5AD81BE8152963C923B
:104610002E925197D3CF8A0D9B1DDC018D919C91D9
:10462000009709F03AD4BFEF4B1A5B0A6B0A7B0A7A
:10463000EBE0AE0EB11CAD81BE818D919C911197C6
:1046400012964C9150E070E060E044165506660604
:1046500077060CF322D4BDCFCF93DF93EA0127DF97
:10466000811109C082E090E09983888385EF9FEFF4
:10467000DF91CF91089581E090E00E940E1581E0D6
:1046800090E09983888390E080E0F2CF10DF109271
:10469000E1041092E004089542E050E060E073E02D
:1046A0000C942C15FF920F931F93CF93DF938A01E5
:1046B000EC01C60FD71FF980B9D20897F816190672
:1046C00071F068F082E090E0F801918380838EEFD2
:1046D0009FEFDF91CF911F910F91FF9008956C8113
:1046E0007D818E819F814B810E94C117811108C0FD
:1046F00082E090E0F8019183808384EF9FEFE9CF1F
:10470000F9800E94BC174F2D50E0BE01685F7F4FBB
:104710000E94F23889810E942B1881E090E0F80114
:104720009183808390E080E0D4CFDF92EF92FF927C
:104730000F931F93CF93DF938A01EC01C60FD71F0E
:104740000E94BC177C01D98071D2DD2059F00297FC
:1047500021E030E0D816190619F010F030E020E022
:10476000232B79F482E090E0F801918380838EEF2F
:104770009FEFDF91CF911F910F91FF90EF90DF900E
:104780000895EF2841F482E090E0F801918380835E
:1047900084EF9FEFEECFF9800E94BC174F2D50E0C1
:1047A000BE016E5F7F4F0E94F23889810E942B18F4
:1047B00081E090E0F8019183808390E080E0D9CFA0
:1047C0008CE493E29093EB048093EA040895809143
:1047D000EA049091EB0408950895FC01118210827F
:1047E000938382830895DB011D921C92DC01129653
:1047F000ED91FC9113977183608313967C936E9374
:1048000012970895FC0180819181DB018D939C9327
:10481000A081B181109741F08D919C91918380830B
:10482000892B11F4F383E2830895FC018081918147
:10483000DB018D939C93892B11F4738362837183C5
:1048400060830895FC01118210829383828308950E
:10485000CF93DF931F921F92CDB7DEB71A821982D2
:10486000F894BE016F5F7F4F81EF94E0CBDF8981C9
:104870009A81009709F011D389819A81892B89F750
:10488000BE016F5F7F4F85EF94E0BCDF89819A8125
:10489000009709F002D389819A81892B89F778944E
:1048A0000F900F90DF91CF910895CF93DF931F92D8
:1048B0001F92CDB7DEB71A821982F894BE016F5FDE
:1048C0007F4F8DEE94E09EDF89819A81009709F0F9
:1048D000E4D289819A81892B89F778940F900F907F
:1048E000DF91CF91089581E0089590E080E00895F0
:1048F000EF92FF920F931F93CF93DF931F921F921C
:10490000CDB7DEB71A8219828091EC0407EF1FEF52
:104910008823A1F1F894BE016F5F7F4F85EF94E08B
:1049200071DF789489819A81EE24E394F12C892BAC
:1049300051F4F894BE016F5F7F4F81EF94E062DF26
:104940007894F12CE12C89819A810EEF1FEF00976A
:10495000A9F0FC014281538164E070E043D68C01F0
:10496000892B61F0F89469817A81C701880F991FBA
:10497000880F991F8F509B4F58DF7894C8010F9074
:104980000F90DF91CF911F910F91FF90EF900895BD
:104990000F931F93CF93DF9300D01F92CDB7DEB755
:1049A0001C821B821A8219828091EC0407EF1FEF90
:1049B0008823C1F0AE014D5F5F4F64E070E0CE012F
:1049C000019683D68C01892B69F4E981FA818B8168
:1049D0009C8193838283F89469817A818DEE94E03F
:1049E00002DF7894C8010F900F900F900F90DF9125
:1049F000CF911F910F91089588D7049608958F92B3
:104A00009F92AF92BF92CF92DF92EF92FF920F935D
:104A10001F93CF93DF931F921F92CDB7DEB71A82F9
:104A20001982BC016F5F7F4F6330710598F0AA2433
:104A3000AA94BA2CC5010F900F90DF91CF911F91CE
:104A40000F91FF90EF90DF90CF90BF90AF909F902D
:104A50008F9008954115510551F3480159018A017C
:104A60006C01CADF8815990511F7E114F104F9F218
:104A70008E0D9F1DA816B906D0F28091EC048823F4
:104A8000F1F0F894B501645071099701AE014F5FE0
:104A90005F4FC8010496AED65C01892B71F4898101
:104AA0009A81F80193838283C601880F991F880F2A
:104AB000991FB8018F509B4F96DE7894BBCF87EF3C
:104AC000A82EBB24BA94B6CFAF92BF92CF92DF92FA
:104AD000EF92FF920F931F93CF93DF931F921F923A
:104AE000CDB7DEB71A821982892B09F047C061154C
:104AF000710509F443C04115510509F43FC0211562
:104B0000310509F43BC001151105C1F18091EC0498
:104B10008823B9F179016A015B01F894BE016F5FE6
:104B20007F4F8DEE94E06EDE789489819A810097B4
:104B300059F1DC0112966D917C91A801049673D60F
:104B40008C01E981FA81D501ED93FC9382819381F7
:104B50000496F601918380834FDFD7018D939C9358
:104B6000C8010F900F90DF91CF911F910F91FF908F
:104B7000EF90DF90CF90BF90AF9008950FEF1FEFB1
:104B8000EFCF07EF1FEFECCF0EEF1FEFE9CFCF9383
:104B9000DF93EC01672B71F4C1D68C179D0760F091
:104BA000B4D62496C80FD91FB3D68C0F9D1FDF91A2
:104BB000CF910895B0D6F1CF90E080E0F8CF0F9379
:104BC0001F93CF93DF932091EC0421112BC08B0115
:104BD000EC0181EF94E001DE85EF94E0FEDD8DEEE7
:104BE00094E0FBDD97D00097C1F498D670E060E0C8
:104BF000CEDF44E652E062E070E07BD1009769F4DA
:104C000080916402909165029BD6B801CE01D0D408
:104C1000009719F421E02093EC04DF91CF911F91CC
:104C20000F91089584EF9FEFF8CF75C677C6CF93A5
:104C3000DF9377D6EC01892B11F40ADE36DECE0144
:104C4000DF91CF910895CF93DF936BD6EC01892B41
:104C500009F4FEDDCE01DF91CF91089580916402C9
:104C6000909165020895CF93DF938091EC04D0E09A
:104C7000C0E08823D1F069D6EC01892BB1F4E8DDDE
:104C800014DE8091640290916502CFD1B5D2EC011F
:104C9000892B59F481EF94E0D5DD85EF94E0D2DDE6
:104CA0008DEE94E0CFDD1092EC04CE01DF91CF9138
:104CB0000895EF92FF920F931F93CF93DF93EC0130
:104CC0007A018B010F5F1F4F0E9DA0010F9D500DAC
:104CD0001E9D500D112470E060E00E94FB3890E0B2
:104CE00080E0F0E0E0E02FEFE816F90639F4DF911C
:104CF000CF911F910F91FF90EF9008951A82198222
:104D00002883309711F0D283C1830196FE01C00F32
:104D1000D11FEACFAF92BF92CF92DF92EF92FF9274
:104D20000F931F93CF93DF9389ED96E07C012CEFD7
:104D3000E22243E050E066E672E08CE692E0E5D3E2
:104D400086E6C82E82E0D82E9CE6A92E92E0B92EE7
:104D5000C2EDD7E08E01D6014D915D916D01F50157
:104D6000619171915F01D8011196FC92EE921596B6
:104D70005C934E93149713965C934E9312971796E9
:104D80007C936E9316979B012F5F3F4F249FC0012A
:104D9000259F900D349F900D112419969C938E930E
:104DA0001897E114F10411F0C70183DFF801808541
:104DB0009185E80EF91E065F1F4FFCE6CF16F2E064
:104DC000DF0649F6EBEFF4E08BED91E0DF019C01AB
:104DD0001D9221503040E1F71092FA041092F9042C
:104DE0001F8E1E8E1BA21AA219A218A21DA21CA2FF
:104DF0001FA21EA22A9637E0C03FD30789F7109260
:104E0000CF071092CE071092D1071092D00790E0F2
:104E100080E0DF91CF911F910F91FF90EF90DF9095
:104E2000CF90BF90AF9008950097F1F0F894ACE662
:104E3000B2E0E2EDF7E030E020E04D915D914817FF
:104E40005907A8F0428153814115510581F08AE04C
:104E5000829FF001839FF00D1124EE52F84F808164
:104E60009181009759F4789490E080E008952F5F45
:104E70003F4F3A962330310501F7F5CFDC0111960B
:104E80006D917C91718360834150510953834283BA
:104E9000FC012193CF0178940895009749F1DC013A
:104EA0008E91863041F4E091D007F091D107309790
:104EB000F9F0CD0119948630D8F4282F30E0F89419
:104EC0008FEF8C938AE0829FF001839FF00D112475
:104ED000EE52F84F8081918112969C938E93119798
:104EE000B183A08382819381019693838283789496
:104EF0000895CF92DF92EF92FF920F931F93CF937B
:104F0000DF939C018EEF94E08C7F4115510509F4ED
:104F100089C02115310509F485C06115710509F4B1
:104F200081C08A01AB01B9016D5F7F4F6C7F9B012E
:104F30002F5F3F4F249F7001259FF00C349FF00C92
:104F40001124F894E2EDF7E023E030E0E901A6A1B6
:104F5000B7A1C68CD78CCD2809F058C0109709F09E
:104F60003EC0C090F904D090FA0428ED31E02C192D
:104F70003D092E153F0530F47894CFEFDFEF86EF33
:104F80009FEF21C02AE02C9FF0012D9FF00D1124EE
:104F9000EE52F84F91838083558344835383428339
:104FA00077836683F186E086009709F082DEEC0C59
:104FB000FD1CF092FA04E092F9047894CF3FDC07EC
:104FC000F1F290E080E0F801D183C083DF91CF91CE
:104FD0001F910F91FF90EF90DF90CF900895AE1545
:104FE000BF05A0F02AE02C9FF0012D9FF00D1124A9
:104FF000EE52F84F918380835583448353834283D9
:10500000778366830097C9F254DED7CF8A0F9B1F40
:105010002F5F3F4F3A962630310509F097CFCFEFFB
:10502000DFEFCBCF8FEF9FEFD1CF9C01039703979B
:1050300008F04EC0F89485E09AE0482F50E024171D
:1050400035079CF191E08AE0829FF001839FF00D8B
:105050001124EE52F84F11821082158214821382AD
:105060001282178216829923E1F08091F9049091BF
:10507000FA04E2EDF7E0268D378D232B49F426A1C3
:1050800037A12115310521F0821B930B17A216A21F
:105090003A9627E0E03FF20771F79093FA04809385
:1050A000F904789490E080E00895949FF001959F32
:1050B000F00D1124EE52F84F40815181452B31F40F
:1050C00040855185452B11F48150B7CF90E0BBCF7F
:1050D0008FEF9FEF08954115510549F1009739F180
:1050E0006115710521F1F8942091CE073091CF0719
:1050F000232BB9F42091D0073091D107232B89F4C9
:105100009093CF078093CE077093D1076093D00719
:10511000789426E030E090E080E0FA01318320834B
:10512000089578942FEF3FEF86EF9FEFF6CF8FEF44
:105130009FEF0895069769F4F8941092CF071092A4
:10514000CE071092D1071092D007789490E080E0BB
:1051500008958FEF9FEF08956115710519F4F0E040
:10516000E0E011C08630910581F4E091CE07F09126
:10517000CF073097A1F3CB0101961995009779F3EA
:10518000FC0186E08193CF0108959C0123503109F1
:105190002330310520F72AE0289FD001299FB00D48
:1051A0001124AE52B84F2D913C911197232BB9F297
:1051B00016962D913C9117972617370780F2F89491
:1051C00012962D913C9113972115310529F0ED91FF
:1051D000FC911197309711F47894C1CF418152819D
:1051E00011965C934E932150310913963C932E9364
:1051F000129781937894C7CFE6EDF6E088EFDF0150
:105200001D928A95E9F7EBEFF4E08BED91E0DF0179
:105210009C011D9221503040E1F71092FA04109247
:10522000F904E2EDF7E08CE3DF011D928A95E9F7DE
:10523000EEECF7E084E0DF011D928A95E9F790E05B
:1052400080E00895CF93DF93C0917202D0917302F2
:10525000CF3FDC0759F422D49093730280937202FB
:1052600097FF09C0D0937302C093720284EF9FEF3F
:10527000DF91CF91089590E080E0FACF82309105E0
:1052800028F480930E0890E080E008958FEF9FEF60
:1052900008954F925F926F927F92AF92BF92CF929A
:1052A000DF92EF92FF920F931F93CF93DF931F92A2
:1052B0001F92CDB7DEB71A821982009709F479C020
:1052C0006115710509F475C0209172023091730265
:1052D00007EF1FEF2F3F3F4F09F445C06B015C0103
:1052E000412C512C3201F12CE12C10E000E09E0108
:1052F0002F5F3F4FA6014E195F09B5016E0D7F1D4F
:10530000809172029091730228D4892B09F04BC0CE
:1053100089819A81009741F4E114F10429F42091E4
:105320000E08222309F442C0E80EF91EEC14FD0415
:10533000D0F480E8481684E858068EE168067104C7
:1053400020F560E070E0CB010E94C4322AE0420EFA
:10535000511C611C711C0A3F4FEF140721F0043FE0
:105360008FEF1807A1F4C8010F900F90DF91CF9134
:105370001F910F91FF90EF90DF90CF90BF90AF9073
:105380007F906F905F904F90089501EF1FEF81E045
:1053900090E0013F2FEF120711F090E080E0892BA1
:1053A00009F4A5CFE0CF04EF1FEFDDCF0AEF1FEF29
:1053B000DACF0FEF1FEFD7CF4F925F926F927F92AE
:1053C000AF92BF92CF92DF92EF92FF920F931F9313
:1053D000CF93DF931F921F92CDB7DEB71A82198247
:1053E000009709F479C06115710509F475C0209121
:1053F00072023091730207EF1FEF2F3F3F4F09F406
:1054000045C06B015C01412C512C3201F12CE12C87
:1054100010E000E09E012F5F3F4FA6014E195F098B
:10542000B5016E0D7F1D80917202909173024BD376
:10543000892B09F04BC089819A81009741F4E114CE
:10544000F10429F420910E08222309F442C0E80E49
:10545000F91EEC14FD04D0F480E8481686E95806DD
:1054600088E96806710420F560E070E0CB010E94D5
:10547000C4322AE0420E511C611C711C0E3F4FEFDA
:10548000140721F0043F8FEF1807A1F4C8010F9013
:105490000F90DF91CF911F910F91FF90EF90DF90D0
:1054A000CF90BF90AF907F906F905F904F90089596
:1054B00002EF1FEF81E090E0023F2FEF120711F0A3
:1054C00090E080E0892B09F4A5CFE0CF04EF1FEF37
:1054D000DDCF0EEF1FEFDACF0FEF1FEFD7CF8091A9
:1054E0007202909173028F3F980749F0CFD2892BB7
:1054F00049F48FEF9FEF909373028093720290E0D4
:1055000080E0089584EF9FEF0895CF92DF92EF92AD
:10551000FF920F931F93CF93DF9321E04115510525
:1055200009F020E04150510921112CC0DC01FB01A0
:10553000D12CC12C21E022C03FEFC31AD30A7D0138
:105540000D911D91E701EA80FB80E016F106A8F4B9
:1055500020813181E280F380F182E08233832283F3
:10556000ED90FC9011979D0122503109E901F982DB
:10557000E88211961C930E9320E03296C416D5064D
:10558000D8F2D2CFDF91CF911F910F91FF90EF9082
:10559000DF90CF900895FC01680F791F90E080E0C4
:1055A000E617F70709F408952191820F911DF8CFAE
:1055B00020910F08211113C045DE009791F410923D
:1055C00015081092140810921308109212081092E5
:1055D00011081092100821E020930F08089584EF1D
:1055E0009FEF0895AF92BF92CF92DF92EF92FF921A
:1055F0000F931F93CF93DF93009709F460C0463059
:10560000510508F45CC020910F08C7EFDFEF22239B
:1056100009F449C08C01060F171FF801C080D18022
:10562000C114D10409F44EC096012A5F3F4F4217BE
:10563000530708F447C07C01809114089091150825
:1056400093838283B6016C5F7F4F5801A60EB71E0D
:10565000C801A1DFF5019183808364E070E0C80197
:1056600018DEEC01892BF9F481E090E007DEB60149
:10567000C80104960EDEEC01892B91F462E070E023
:10568000C50107DEEC01892B59F4C70106DC8091C6
:1056900014089091150801969093150880931408AA
:1056A00090E080E0EBDDCE01DF91CF911F910F9173
:1056B000FF90EF90DF90CF90BF90AF900895CFEF25
:1056C000DFEFF1CFC9EFDFEFEECF6F927F928F92D6
:1056D0009F92AF92BF92CF92DF92EF92FF920F9381
:1056E0001F93CF93DF9300D01F92CDB7DEB7009703
:1056F00009F47AC04115510509F476C020910F08CC
:1057000007EF1FEF222309F44DC03A017B015C0132
:1057100064E070E0CE0101964FDE8C01892B09F028
:1057200041C009811A810115110509F45AC04801C7
:1057300086E0880E911CB701680D791D8091740276
:105740009091750209DD6C01009709F450C0A70122
:1057500070E060E00E94FB3889819A81AB81BC8156
:10576000EC0CFD1CF70181939193A193B1937F0100
:1057700081E090E083DDB801C7011EDE892B31F5A1
:1057800062E070E0C701800F911F16DE8C01892B4B
:10579000E9F490E080E072DDF501D182C082F3018E
:1057A00091828082C8010F900F900F900F90DF912F
:1057B000CF911F910F91FF90EF90DF90CF90BF900E
:1057C000AF909F908F907F906F90089590E080E0D1
:1057D00055DDF50111821082F30111821082C6019C
:1057E0005CDB09EF1FEFDECF0FEF1FEFDBCF06EF24
:1057F0001FEFD8CF0097A1F04115510589F0211571
:10580000310571F0F90136966E177F0748F0DC011B
:105810002D933C93DA01ED93FC9390E080E00895A2
:105820008FEF9FEF0895AF92BF92CF92DF92EF92EA
:10583000FF920F931F93CF93DF93009709F45FC0FC
:105840004115510509F45BC06530710508F457C076
:1058500020910F08C7EFDFEF222391F1DC01CD90FB
:10586000DC9011971296ED91FC9196012A5F3F4FC3
:10587000C9EFDFEF2617370719F5C0911008D0914F
:105880001108209749F521E030E03093110820936A
:1058900010087A018C01F0931308E0931208560166
:1058A000B4E0AB0EB11CB50176DE0A0D1B1DF8018C
:1058B000208131818217930729F5D701CD92DC929F
:1058C000CE01DF91CF911F910F91FF90EF90DF906C
:1058D000CF90BF90AF900895209112083091130897
:1058E0002F5F3F4FCCEFDFEFE217F30790F2CBEFE4
:1058F000DFEF2E173F0768F2D0E0C0E0CACFCFEF4E
:10590000DFEFDECFC3EFDFEFDBCF84E090E0089581
:1059100082E090E008958CEF9FEF089580E290E0A0
:1059200008951092150810921408109213081092FE
:105930001208109211081092100890E080E008956B
:105940009093750280937402089580910F088823C4
:1059500091F0C5DD009789F4109215081092140893
:105960001092130810921208109211081092100849
:1059700010920F08089590E080E00895009749F094
:105980006115710531F0FC0111821082FB01118259
:1059900010820895F3CF26E030E040E855E260E061
:1059A00070E090E080E000C08130910571F01CF45F
:1059B000892B39F008958230910551F0039759F001
:1059C00008958BE298E00C94F13588EC98E0FBCFD9
:1059D00085E699E0F8CF82E09AE0F5CF089580E07F
:1059E0000895CF92DF92EF92FF920F931F93A7D566
:1059F00060931608709317088093180890931908FD
:105A000000911A0810911B0820911C0830911D0864
:105A10006B017C01C01AD10AE20AF30A97018601E0
:105A2000083E13402105310508F160931A08709370
:105A30001B0880931C0890931D08A3D080D500916B
:105A40001A0810911B0820911C0830911D08601B3A
:105A5000710B820B930B683E73408105910570F0CA
:105A600081E090E0909321088093200881E01F91CD
:105A70000F91FF90EF90DF90CF9008951092210842
:105A800010922008F3CF10921E08089568EE73E07C
:105A900080E090E079D590E080E0089526E030E065
:105AA00040E050E16EE070E090E080E07DDF8BE26E
:105AB00098E0CDD7892B21F08BE298E0E2D7F7CFA1
:105AC00090E080E00895CF92DF92EF92FF920F93E3
:105AD0001F93CF93DF936B017A01E901198218823A
